{
  "contractName": "ERC20",
  "abi": [
    {
      "inputs": [
        {
          "internalType": "uint256",
          "name": "_totalSupply",
          "type": "uint256"
        }
      ],
      "stateMutability": "nonpayable",
      "type": "constructor"
    },
    {
      "anonymous": false,
      "inputs": [
        {
          "indexed": true,
          "internalType": "address",
          "name": "owner",
          "type": "address"
        },
        {
          "indexed": true,
          "internalType": "address",
          "name": "spender",
          "type": "address"
        },
        {
          "indexed": false,
          "internalType": "uint256",
          "name": "value",
          "type": "uint256"
        }
      ],
      "name": "Approval",
      "type": "event"
    },
    {
      "anonymous": false,
      "inputs": [
        {
          "indexed": true,
          "internalType": "address",
          "name": "from",
          "type": "address"
        },
        {
          "indexed": true,
          "internalType": "address",
          "name": "to",
          "type": "address"
        },
        {
          "indexed": false,
          "internalType": "uint256",
          "name": "value",
          "type": "uint256"
        }
      ],
      "name": "Transfer",
      "type": "event"
    },
    {
      "inputs": [
        {
          "internalType": "address",
          "name": "",
          "type": "address"
        },
        {
          "internalType": "address",
          "name": "",
          "type": "address"
        }
      ],
      "name": "allowance",
      "outputs": [
        {
          "internalType": "uint256",
          "name": "",
          "type": "uint256"
        }
      ],
      "stateMutability": "view",
      "type": "function",
      "constant": true
    },
    {
      "inputs": [
        {
          "internalType": "address",
          "name": "",
          "type": "address"
        }
      ],
      "name": "balanceOf",
      "outputs": [
        {
          "internalType": "uint256",
          "name": "",
          "type": "uint256"
        }
      ],
      "stateMutability": "view",
      "type": "function",
      "constant": true
    },
    {
      "inputs": [],
      "name": "decimals",
      "outputs": [
        {
          "internalType": "uint8",
          "name": "",
          "type": "uint8"
        }
      ],
      "stateMutability": "view",
      "type": "function",
      "constant": true
    },
    {
      "inputs": [],
      "name": "name",
      "outputs": [
        {
          "internalType": "string",
          "name": "",
          "type": "string"
        }
      ],
      "stateMutability": "view",
      "type": "function",
      "constant": true
    },
    {
      "inputs": [],
      "name": "owner",
      "outputs": [
        {
          "internalType": "address",
          "name": "",
          "type": "address"
        }
      ],
      "stateMutability": "view",
      "type": "function",
      "constant": true
    },
    {
      "inputs": [],
      "name": "symbol",
      "outputs": [
        {
          "internalType": "string",
          "name": "",
          "type": "string"
        }
      ],
      "stateMutability": "view",
      "type": "function",
      "constant": true
    },
    {
      "inputs": [],
      "name": "totalSupply",
      "outputs": [
        {
          "internalType": "uint256",
          "name": "",
          "type": "uint256"
        }
      ],
      "stateMutability": "view",
      "type": "function",
      "constant": true
    },
    {
      "inputs": [
        {
          "internalType": "address",
          "name": "recipient",
          "type": "address"
        },
        {
          "internalType": "uint256",
          "name": "amount",
          "type": "uint256"
        }
      ],
      "name": "transfer",
      "outputs": [
        {
          "internalType": "bool",
          "name": "",
          "type": "bool"
        }
      ],
      "stateMutability": "nonpayable",
      "type": "function"
    },
    {
      "inputs": [
        {
          "internalType": "address",
          "name": "spender",
          "type": "address"
        },
        {
          "internalType": "uint256",
          "name": "amount",
          "type": "uint256"
        }
      ],
      "name": "approve",
      "outputs": [
        {
          "internalType": "bool",
          "name": "",
          "type": "bool"
        }
      ],
      "stateMutability": "nonpayable",
      "type": "function"
    },
    {
      "inputs": [
        {
          "internalType": "address",
          "name": "sender",
          "type": "address"
        },
        {
          "internalType": "address",
          "name": "recipient",
          "type": "address"
        },
        {
          "internalType": "uint256",
          "name": "amount",
          "type": "uint256"
        }
      ],
      "name": "transferFrom",
      "outputs": [
        {
          "internalType": "bool",
          "name": "",
          "type": "bool"
        }
      ],
      "stateMutability": "nonpayable",
      "type": "function"
    },
    {
      "inputs": [
        {
          "internalType": "uint256",
          "name": "amount",
          "type": "uint256"
        }
      ],
      "name": "mint",
      "outputs": [],
      "stateMutability": "nonpayable",
      "type": "function"
    },
    {
      "inputs": [
        {
          "internalType": "uint256",
          "name": "amount",
          "type": "uint256"
        }
      ],
      "name": "burn",
      "outputs": [],
      "stateMutability": "nonpayable",
      "type": "function"
    }
  ],
  "bytecode": "0x60806040526040518060400160405280600881526020017f5052414354495345000000000000000000000000000000000000000000000000815250600490816200004a91906200049a565b506040518060400160405280600381526020017f5052540000000000000000000000000000000000000000000000000000000000815250600590816200009191906200049a565b506012600660006101000a81548160ff021916908360ff160217905550348015620000bb57600080fd5b5060405162001462380380620014628339818101604052810190620000e19190620005b7565b336000806101000a81548173ffffffffffffffffffffffffffffffffffffffff021916908373ffffffffffffffffffffffffffffffffffffffff16021790555080600181905550600154600260008060009054906101000a900473ffffffffffffffffffffffffffffffffffffffff1673ffffffffffffffffffffffffffffffffffffffff1673ffffffffffffffffffffffffffffffffffffffff1681526020019081526020016000208190555060008054906101000a900473ffffffffffffffffffffffffffffffffffffffff1673ffffffffffffffffffffffffffffffffffffffff16600073ffffffffffffffffffffffffffffffffffffffff167fddf252ad1be2c89b69c2b068fc378daa952ba7f163c4a11628f55a4df523b3ef600154604051620002119190620005fa565b60405180910390a35062000617565b600081519050919050565b7f4e487b7100000000000000000000000000000000000000000000000000000000600052604160045260246000fd5b7f4e487b7100000000000000000000000000000000000000000000000000000000600052602260045260246000fd5b60006002820490506001821680620002a257607f821691505b602082108103620002b857620002b76200025a565b5b50919050565b60008190508160005260206000209050919050565b60006020601f8301049050919050565b600082821b905092915050565b600060088302620003227fffffffffffffffffffffffffffffffffffffffffffffffffffffffffffffffff82620002e3565b6200032e8683620002e3565b95508019841693508086168417925050509392505050565b6000819050919050565b6000819050919050565b60006200037b620003756200036f8462000346565b62000350565b62000346565b9050919050565b6000819050919050565b62000397836200035a565b620003af620003a68262000382565b848454620002f0565b825550505050565b600090565b620003c6620003b7565b620003d38184846200038c565b505050565b5b81811015620003fb57620003ef600082620003bc565b600181019050620003d9565b5050565b601f8211156200044a576200041481620002be565b6200041f84620002d3565b810160208510156200042f578190505b620004476200043e85620002d3565b830182620003d8565b50505b505050565b600082821c905092915050565b60006200046f600019846008026200044f565b1980831691505092915050565b60006200048a83836200045c565b9150826002028217905092915050565b620004a58262000220565b67ffffffffffffffff811115620004c157620004c06200022b565b5b620004cd825462000289565b620004da828285620003ff565b600060209050601f831160018114620005125760008415620004fd578287015190505b6200050985826200047c565b86555062000579565b601f1984166200052286620002be565b60005b828110156200054c5784890151825560018201915060208501945060208101905062000525565b868310156200056c578489015162000568601f8916826200045c565b8355505b6001600288020188555050505b505050505050565b600080fd5b620005918162000346565b81146200059d57600080fd5b50565b600081519050620005b18162000586565b92915050565b600060208284031215620005d057620005cf62000581565b5b6000620005e084828501620005a0565b91505092915050565b620005f48162000346565b82525050565b6000602082019050620006116000830184620005e9565b92915050565b610e3b80620006276000396000f3fe608060405234801561001057600080fd5b50600436106100b45760003560e01c806370a082311161007157806370a082311461018f5780638da5cb5b146101bf57806395d89b41146101dd578063a0712d68146101fb578063a9059cbb14610217578063dd62ed3e14610247576100b4565b806306fdde03146100b9578063095ea7b3146100d757806318160ddd1461010757806323b872dd14610125578063313ce5671461015557806342966c6814610173575b600080fd5b6100c1610277565b6040516100ce9190610a65565b60405180910390f35b6100f160048036038101906100ec9190610b20565b610305565b6040516100fe9190610b7b565b60405180910390f35b61010f6103f7565b60405161011c9190610ba5565b60405180910390f35b61013f600480360381019061013a9190610bc0565b6103fd565b60405161014c9190610b7b565b60405180910390f35b61015d6105ae565b60405161016a9190610c2f565b60405180910390f35b61018d60048036038101906101889190610c4a565b6105c1565b005b6101a960048036038101906101a49190610c77565b610699565b6040516101b69190610ba5565b60405180910390f35b6101c76106b1565b6040516101d49190610cb3565b60405180910390f35b6101e56106d5565b6040516101f29190610a65565b60405180910390f35b61021560048036038101906102109190610c4a565b610763565b005b610231600480360381019061022c9190610b20565b610893565b60405161023e9190610b7b565b60405180910390f35b610261600480360381019061025c9190610cce565b6109b0565b60405161026e9190610ba5565b60405180910390f35b6004805461028490610d3d565b80601f01602080910402602001604051908101604052809291908181526020018280546102b090610d3d565b80156102fd5780601f106102d2576101008083540402835291602001916102fd565b820191906000526020600020905b8154815290600101906020018083116102e057829003601f168201915b505050505081565b600081600360003373ffffffffffffffffffffffffffffffffffffffff1673ffffffffffffffffffffffffffffffffffffffff16815260200190815260200160002060008573ffffffffffffffffffffffffffffffffffffffff1673ffffffffffffffffffffffffffffffffffffffff168152602001908152602001600020819055508273ffffffffffffffffffffffffffffffffffffffff163373ffffffffffffffffffffffffffffffffffffffff167f8c5be1e5ebec7d5bd14f71427d1e84f3dd0314c0f7b2291e5b200ac8c7c3b925846040516103e59190610ba5565b60405180910390a36001905092915050565b60015481565b600081600360008673ffffffffffffffffffffffffffffffffffffffff1673ffffffffffffffffffffffffffffffffffffffff16815260200190815260200160002060003373ffffffffffffffffffffffffffffffffffffffff1673ffffffffffffffffffffffffffffffffffffffff168152602001908152602001600020600082825461048b9190610d9d565b9250508190555081600260008673ffffffffffffffffffffffffffffffffffffffff1673ffffffffffffffffffffffffffffffffffffffff16815260200190815260200160002060008282546104e19190610d9d565b9250508190555081600260008573ffffffffffffffffffffffffffffffffffffffff1673ffffffffffffffffffffffffffffffffffffffff16815260200190815260200160002060008282546105379190610dd1565b925050819055508273ffffffffffffffffffffffffffffffffffffffff168473ffffffffffffffffffffffffffffffffffffffff167fddf252ad1be2c89b69c2b068fc378daa952ba7f163c4a11628f55a4df523b3ef8460405161059b9190610ba5565b60405180910390a3600190509392505050565b600660009054906101000a900460ff1681565b80600260003373ffffffffffffffffffffffffffffffffffffffff1673ffffffffffffffffffffffffffffffffffffffff16815260200190815260200160002060008282546106109190610d9d565b9250508190555080600160008282546106299190610d9d565b92505081905550600073ffffffffffffffffffffffffffffffffffffffff163373ffffffffffffffffffffffffffffffffffffffff167fddf252ad1be2c89b69c2b068fc378daa952ba7f163c4a11628f55a4df523b3ef8360405161068e9190610ba5565b60405180910390a350565b60026020528060005260406000206000915090505481565b60008054906101000a900473ffffffffffffffffffffffffffffffffffffffff1681565b600580546106e290610d3d565b80601f016020809104026020016040519081016040528092919081815260200182805461070e90610d3d565b801561075b5780601f106107305761010080835404028352916020019161075b565b820191906000526020600020905b81548152906001019060200180831161073e57829003601f168201915b505050505081565b60008054906101000a900473ffffffffffffffffffffffffffffffffffffffff1673ffffffffffffffffffffffffffffffffffffffff163373ffffffffffffffffffffffffffffffffffffffff16146107bb57600080fd5b80600260003373ffffffffffffffffffffffffffffffffffffffff1673ffffffffffffffffffffffffffffffffffffffff168152602001908152602001600020600082825461080a9190610dd1565b9250508190555080600160008282546108239190610dd1565b925050819055503373ffffffffffffffffffffffffffffffffffffffff16600073ffffffffffffffffffffffffffffffffffffffff167fddf252ad1be2c89b69c2b068fc378daa952ba7f163c4a11628f55a4df523b3ef836040516108889190610ba5565b60405180910390a350565b600081600260003373ffffffffffffffffffffffffffffffffffffffff1673ffffffffffffffffffffffffffffffffffffffff16815260200190815260200160002060008282546108e49190610d9d565b9250508190555081600260008573ffffffffffffffffffffffffffffffffffffffff1673ffffffffffffffffffffffffffffffffffffffff168152602001908152602001600020600082825461093a9190610dd1565b925050819055508273ffffffffffffffffffffffffffffffffffffffff163373ffffffffffffffffffffffffffffffffffffffff167fddf252ad1be2c89b69c2b068fc378daa952ba7f163c4a11628f55a4df523b3ef8460405161099e9190610ba5565b60405180910390a36001905092915050565b6003602052816000526040600020602052806000526040600020600091509150505481565b600081519050919050565b600082825260208201905092915050565b60005b83811015610a0f5780820151818401526020810190506109f4565b60008484015250505050565b6000601f19601f8301169050919050565b6000610a37826109d5565b610a4181856109e0565b9350610a518185602086016109f1565b610a5a81610a1b565b840191505092915050565b60006020820190508181036000830152610a7f8184610a2c565b905092915050565b600080fd5b600073ffffffffffffffffffffffffffffffffffffffff82169050919050565b6000610ab782610a8c565b9050919050565b610ac781610aac565b8114610ad257600080fd5b50565b600081359050610ae481610abe565b92915050565b6000819050919050565b610afd81610aea565b8114610b0857600080fd5b50565b600081359050610b1a81610af4565b92915050565b60008060408385031215610b3757610b36610a87565b5b6000610b4585828601610ad5565b9250506020610b5685828601610b0b565b9150509250929050565b60008115159050919050565b610b7581610b60565b82525050565b6000602082019050610b906000830184610b6c565b92915050565b610b9f81610aea565b82525050565b6000602082019050610bba6000830184610b96565b92915050565b600080600060608486031215610bd957610bd8610a87565b5b6000610be786828701610ad5565b9350506020610bf886828701610ad5565b9250506040610c0986828701610b0b565b9150509250925092565b600060ff82169050919050565b610c2981610c13565b82525050565b6000602082019050610c446000830184610c20565b92915050565b600060208284031215610c6057610c5f610a87565b5b6000610c6e84828501610b0b565b91505092915050565b600060208284031215610c8d57610c8c610a87565b5b6000610c9b84828501610ad5565b91505092915050565b610cad81610aac565b82525050565b6000602082019050610cc86000830184610ca4565b92915050565b60008060408385031215610ce557610ce4610a87565b5b6000610cf385828601610ad5565b9250506020610d0485828601610ad5565b9150509250929050565b7f4e487b7100000000000000000000000000000000000000000000000000000000600052602260045260246000fd5b60006002820490506001821680610d5557607f821691505b602082108103610d6857610d67610d0e565b5b50919050565b7f4e487b7100000000000000000000000000000000000000000000000000000000600052601160045260246000fd5b6000610da882610aea565b9150610db383610aea565b9250828203905081811115610dcb57610dca610d6e565b5b92915050565b6000610ddc82610aea565b9150610de783610aea565b9250828201905080821115610dff57610dfe610d6e565b5b9291505056fea2646970667358221220284a9ce1365026346edb7f6c78d8e99a40c9fd3ea8439b7c9595f27e9da3114964736f6c63430008110033",
  "immutableReferences": {},
  "source": "// SPDX-License-Identifier: MIT\npragma solidity ^0.8.17;\n\nimport \"./IERC20.sol\";\n\ncontract ERC20 is IERC20 {\n\n    /////////STATE VARIABLES///////\n    //reminder to self: type visibility name\n    address public owner; //owner of the contract\n    uint public totalSupply; //totalsupply of the contract\n    mapping(address => uint) public balanceOf; //balance of the caller\n    mapping(address => mapping(address => uint)) public allowance; //owner approves => the spender + the amount\n    string public name = \"PRACTISE\"; //name of the ERC20 token\n    string public symbol = \"PRT\"; // Symbol of the erc 20 toke \n    uint8 public decimals = 18; //decimals of the token\n\n    //////////CONSTRUCTOR///////////\n    constructor(uint _totalSupply) {\n        owner = msg.sender; // set owner of the contract to address deploying the smartcontract\n        totalSupply = _totalSupply; //constructor takes totalSupply as param, when deployed send to deployer address\n        balanceOf[owner] = totalSupply; // set the balance of owner equal to total supply\n        emit Transfer(address(0), owner, totalSupply);\n    }\n\n    ///////////MODIFIERS////////////\n    //only allow owners to execute transaction\n    modifier onlyOwner() {\n        require(msg.sender== owner); //only owner can call this function\n        _;\n    }\n\n    //////////FUNCTIONS////////////\n    function transfer(address recipient, uint amount) external returns (bool) {\n        balanceOf[msg.sender] -= amount;\n        balanceOf[recipient] += amount;\n        emit Transfer(msg.sender, recipient, amount);\n        return true;\n    }\n\n    function approve(address spender, uint amount) external returns (bool) {\n        allowance[msg.sender][spender] = amount;\n        emit Approval(msg.sender, spender, amount);\n        return true;\n    }\n\n    function transferFrom(\n        address sender,\n        address recipient,\n        uint amount\n    ) external returns (bool) {\n        allowance[sender][msg.sender] -= amount;\n        balanceOf[sender] -= amount;\n        balanceOf[recipient] += amount;\n        emit Transfer(sender, recipient, amount);\n        return true;\n    }\n\n    function mint(uint amount) external onlyOwner {\n        balanceOf[msg.sender] += amount;\n        totalSupply += amount;\n        emit Transfer(address(0), msg.sender, amount);\n    }\n\n    function burn(uint amount) external {\n        balanceOf[msg.sender] -= amount;\n        totalSupply -= amount;\n        emit Transfer(msg.sender, address(0), amount);\n    }\n}\n",
  "sourcePath": "/Users/razazaidi/Documents/GitHub/smartcontract/ERC20/contracts/ERC20.sol",
  "compiler": {
    "name": "solc",
    "version": "0.8.17+commit.8df45f5f.Emscripten.clang"
  },
  "schemaVersion": "3.4.14",
  "updatedAt": "2023-06-03T20:20:23.012Z",
  "networkType": "ethereum",
  "devdoc": {
    "kind": "dev",
    "methods": {},
    "version": 1
  },
  "userdoc": {
    "kind": "user",
    "methods": {},
    "version": 1
  }
}